:020000040000FA
:10000000E8A105205941000097B700002D410000EC
:100010002D4100002D4100002D4100002D41000028
:10002000000000000000000000000000FD3D000096
:100030002D41000000000000A53D00002D41000002
:100040007D3E00007D3E00007D3E00007D3E0000C4
:100050007D3E00007D3E00007D3E00007D3E0000B4
:100060007D3E00007D3E00007D3E00007D3E0000A4
:100070007D3E00007D3E00007D3E00007D3E000094
:100080007D3E00007D3E00007D3E00007D3E000084
:100090007D3E00007D3E00007D3E00007D3E000074
:1000A0007D3E00007D3E00007D3E00007D3E000064
:1000B0007D3E00007D3E00007D3E00007D3E000054
:1000C0007D3E00007D3E00007D3E00007D3E000044
:1000D0007D3E00007D3E00007D3E00007D3E000034
:1000E0007D3E00007D3E00007D3E00007D3E000024
:1000F0007D3E00007D3E00007D3E00007D3E000014
:100100007D3E00007D3E00007D3E00007D3E000003
:100110007D3E00007D3E00007D3E00007D3E0000F3
:100120007D3E00007D3E00007D3E00007D3E0000E3
:100130007D3E00007D3E00007D3E00007D3E0000D3
:100140007D3E00007D3E00007D3E00007D3E0000C3
:100150007D3E000053B94AB9002908BF00281CBFE2
:100160004FF0FF314FF0FF3000F00CB8ADF1080C4C
:100170006DE904CE00F008F8DDF804E0DDE90223C3
:1001800004B07047704700BF2DE9F04786468C46A3
:100190000846089E154674461946002B40F0C1805B
:1001A0008542B2FA82F245D94AB1C2F1200300FA7F
:1001B00002FC954094402EFA03F343EA0C0C4FEAFC
:1001C000154EA8B2230CBCFBFEF80EFB18CC08FBA6
:1001D00000F943EA0C43994528D9EB1808F1FF3799
:1001E00004D2994502D9A8F102072B44A3EB0903D5
:1001F000A4B2B3FBFEFC0EFB1C330CFB00F044EA84
:100200000344A04214D92C190CF1FF3304D2A042AC
:1002100002D9ACF102032C44241A43EA07401EB170
:10022000D440002334607360BDE8F0874746DDE7C3
:100230006346F1E792BB431B01214FEA154EAFB273
:10024000200CB3FBFEFC0EFB1C330CFB07F840EA52
:100250000343984561D9EB180CF1FF3004D298455F
:1002600002D9ACF102002B44A3EB0803A4B2B3FB08
:10027000FEFC0EFB1C330CFB07F744EA0344A742C9
:100280004DD92C190CF1FF3304D2A74202D9ACF19D
:1002900002032C44E41B43EA0040C0E7C2F1200300
:1002A0009540944020FA03F12EFA03F34FEA154EDD
:1002B0009040AFB20343B1FBFEFC0EFB1C10190CC7
:1002C0000CFB07F841EA0041884522D969180CF176
:1002D000FF3004D2884502D9ACF102002944A1EBD9
:1002E00008019BB2B1FBFEFC0EFB1C110CFB07F7D7
:1002F00043EA01439F420ED9EB180CF1FF3104D2BF
:100300009F4202D9ACF102012B44DB1B41EA0041C0
:1003100093E76046E3E76146F7E76046A4E7634694
:10032000B8E7834206D916B9002108467CE7C6E93A
:1003300000E0F9E7B3FA83F78FB9834201D372453E
:1003400008D8BEEB020460EB030301209C461EB9F3
:10035000002169E73846FAE7C6E9004CF8E7C7F13B
:10036000200CBB400EFA07F522FA0CF42EFA0CF121
:10037000BA401C4320FA0CF3B8404FEA1449014339
:100380001FFA84FEB3FBF9F809FB18300B0C08FBCD
:100390000EFA43EA00439A4540D9E31808F1FF30CA
:1003A00004D29A4502D9A8F102002344A3EB0A0320
:1003B00089B2B3FBF9F809FB183308FB0EFE41EADA
:1003C00003418E452CD9611808F1FF3304D28E45C4
:1003D00002D9A8F10203214443EA0040A1EB0E0137
:1003E000A0FB02984145CE46434602D306D14D4577
:1003F00004D20138B9EB020E68EB0403002EA7D03B
:10040000B5EB0E0261EB030101FA0CFC22FA07F3D3
:10041000F9404CEA0303C6E9003199E74046C5E7D5
:100420004346D9E7F0B5424B424A85B0C2F80036A0
:10043000C2F80436C2F80836C2F80C36C2F81036D4
:10044000C2F81436C2F81836C2F81C3602F58052CB
:10045000C2F80036C2F80436C2F80836C2F80C36C4
:10046000C2F81036C2F81436C2F81836C2F81C3674
:1004700000F074F8304C20460DF057FE00B32569AB
:10048000A6682B680D2143F400532B602046336887
:100490002A4A98472046736801A9984720B92A68D4
:1004A000019B53409A040BD54FF05023D3F80034EE
:1004B0000BB1DB0704D502F0C3FE214803F098FA24
:1004C00001A800F0A1FE1F4B1B68834200D0FEE78D
:1004D0004FF48031002005F0EBFF044600B1FEE749
:1004E00006F08EF869469DF808000AF0A2F8009B15
:1004F000039D1D44019B1E8905F0C2FFAF1901F049
:10050000E7FE00F0ADFE00F08FFE03F067FE84F31F
:100510000B8884F30A88AB5983F3088884F3148822
:10052000BFF36F8FBFF36F8F7B689847FEE700BF05
:100530003546526E0080015004E9000011000100B0
:10054000E8EC00007027002004289ABF024B1856E0
:100550006FF01500704700BF82F200004FF4C051E9
:10056000014806F0D3BA00BF464601207FB51C46BD
:1005700083881F4E3F2B2ED10378022B2BD1C579B8
:100580004DBB092001A901F07FFB002821DB019868
:10059000294682680AF00EFF054601980AF0DFFE40
:1005A000003D18BF01250A2120460DF0B1FD0223B0
:1005B00002A92046029603930DF0A3FD294620468A
:1005C0000DF090FD0A2120460DF0AAFD002004B098
:1005D00070BD0125E7E70A2120460DF099FD0223B1
:1005E00002A92046029603930DF08BFD0821E6E751
:1005F00087F200002DE9F04FDFF8C0A1F9B038A86C
:10060000DDE9847816461C46DDF818B2DAF80050A9
:100610000CF0C5FF002138A806F08CFB3FB1B8F103
:10062000000F04DD4246394638A80CF0BCFF4FF0FD
:100630000008738937891F44F3681F44474546D82B
:100640000DA938A80CF0F3FFBBF1000F04D0202255
:1006500058460DA90BF0FEF80023224600933146C0
:100660004FF6FF7307A80AF01AF8804660BB2046D1
:100670000C9E0AF0C0F8864226D84FF0FF37DFF80C
:1006800040910DF1160305AA06A907A80AF055F82E
:10069000002819DB40F08A80BDF81660102E2ED19C
:1006A000BDF81460202E0FD133462046069938AA93
:1006B0000AF056FE40B9324638A90DA80AF089F86A
:1006C000404B1B68834217D0DAF8005071E0839BDF
:1006D000A7EB0809994528BF994641464B46204655
:1006E000829A0AF03DFE0028EED14A46829938A847
:1006F0000CF059FFC844A1E74FF00108C1E7012EF3
:1007000035D1BDF81430202BDED82046069938AA02
:100710000AF026FE07460028D6D19DF814B0BBF19A
:10072000200F02D94FF0FF37ABE7D9F80030264E43
:100730000393039B9F42F5DA1DA80CF030FF0021C4
:100740001DA806F0F7FA72681DA8126856F8081B73
:100750000CF029FF15A91DA80CF069FF5A4638A90D
:1007600015A80BF050F800288BD00137E1E7202EB8
:1007700087D17B1C85D0D9F80030BB42D2DDBDF8D3
:100780001430B3F5807F9FD12046069938AA0AF02D
:10079000E7FD002898D1FFB23146BDF8143000972C
:1007A00038AA0DA800F012F80546BBE7B8F1000F13
:1007B0008AD0284679B0BDE8F08F00BFB82000206D
:1007C000F0EC000070270020F4EC00002DE9F04F61
:1007D000DFF8B4A1ADF54D7D074629A89DF858B3C3
:1007E000894690461E46DAF800500CF095FE674B9D
:1007F0008CAA53F83B4003EBCB035B6804941B6863
:1008000004A81C44214630230BF0ADFC70BB049BB4
:100810008C9A13449C4229D121462BAA04A80BF0A0
:10082000B6FC18BB0DF1B80B5A46214604A80BF0D4
:10083000AEFC0390D0B92BA80BF0A0FD049A2A902F
:10084000944213D1039BCDF804B01A4600932BA910
:1008500029A80CF01EFE48B929A806F0FDF928B910
:100860002BA80BF08BFD86422A900AD029A80CF009
:100870005DFE29A80CF05AFE28460DF54D7DBDE819
:10088000F08FB6F5807FDAF800507BD1B9F1200FF8
:1008900078D141468CAA29A806F004FA044600281B
:1008A00070D19DF82F33BC2B6CD1DF2605900DF550
:1008B000A8790EA80CF073FE00210EA806F03AFAF3
:1008C00020220DF20F310EA80CF06DFE042205A9B6
:1008D0000EA80CF068FE06A90EA80CF0A8FE202EAB
:1008E000B046A8BF4FF020089DF8173048460133A6
:1008F000424606A9A6EB08068DF817300AF0AAFFB3
:10090000002EC144D5DC54AB184600219C468CAA6D
:10091000067812F801EB013186EA0E06DF2900F8AD
:10092000016BF5D11A7802F07F021A7013F8016B8F
:1009300046BB0134BE2CF9D19CF8BE30012B21D12D
:100940000EA80CF02CFE31460EA806F0F3F9082292
:100950000F490EA80CF027FE394620220EA80CF0F5
:1009600022FE20220DF20F210EA80CF01CFE06A97B
:100970000EA80CF05CFE20220DF20F3106A809F043
:1009800028FF054675E700BFB8200020F4EC000002
:100990008AF200002DE9F04F584B89B0044690F8D8
:1009A000B8000E461D6809F04AFE06A98046C0B28E
:1009B00001F06AF900286FD194F8B87031463846D2
:1009C00009F03DFE4FF02C0907A9C0B209FB06F95A
:1009D00001F05AF9002845D04FF0580B2C220BFBA0
:1009E00007F302FB063323441B6913F0100A4ED1B0
:1009F000314694F8B80005F021FE0546404B1B68CF
:100A0000984212D14FF4807307FB0B920193CDE90A
:100A100003AA3C4BCDF808A000935046069B94F8DF
:100A2000B8102244FFF7E6FD054658235F432C2308
:100A300003FB0677344AE1590698914204EB070319
:100A40000AD1DA681B899B1806D28268934203D2C6
:100A50002E4B1B68AB4223D0CEB1002182680AF036
:100A6000A9FC14E007980AF0C0FC054607980AF0B4
:100A700076FC582394F8B82002FB039323445A1EB3
:100A8000033312F8011FA942A6D19A42F9D1204B93
:100A90001D6806980AF063FC284609B0BDE8F08F8F
:100AA00094F8B83043B3012B0CBF0822FF229045C5
:100AB000EFD158225343E218176A002207922C22E2
:100AC00002FB063323441989042307AA19440AF0B8
:100AD00047FC0028DBD194F8B8300799012B0BBFF5
:100AE0000C4AD7E901234FF082739B18914201D33E
:100AF0009942CED90698B0E70222D8E7B820002064
:100B0000B0200020465E01203DB8F39670270020FB
:100B1000B4200020008800012DE9F84F8846914656
:100B20009A460026DFF88CB0234D244C0B9B9E4246
:100B300001D300200FE00B9B40469F1BB7F5806F51
:100B400028BF4FF480671B4A3B4606EB0A010AF0B8
:100B500007FC10B10120BDE8F88F0A993B465A46C0
:100B6000484671180AF011FC0028F3D1144BC5F85F
:100B700000463E44C5F80446C5F80846C5F80C468C
:100B8000C5F81046C5F81446C5F81846C5F81C4601
:100B9000C3F80046C3F80446C3F80846C3F80C4639
:100BA000C3F81046C3F81446C3F81846C3F81C46E9
:100BB000BCE700BF74270120008001503546526E0B
:100BC000009001502DE9F04F002604460D46B04636
:100BD0005827DFF8CC92DFF8CCA295B0012E84F82C
:100BE000B86007D9B8F1000F00F0408100202C2632
:100BF0005827CDE0A31993F8B91000294BD107FB72
:100C0000064309EB86325A620AEB86321A65304691
:100C100009F015FD94F8B810C0B207FB014120316E
:100C200001F032F80121304609F009FD94F8B810BE
:100C3000C0B207FB01414C3101F026F8204609F013
:100C40000DFE00BB00222046114609F035FE83460A
:100C500090B9204609F091FE70B10AA809F05BFE38
:100C600009F062FE064660BB94F8B830C3B90021B3
:100C700020460AAA09F020FE012294F8B830234445
:100C800083F8B02007E0012294F8B8309042234462
:100C900083F8B020D6D194F8B8600136F6B29DE75B
:100CA00094F8B020042A04BF012284F8B020012B5C
:100CB000DDD094F8B130042BD9D1012384F8B130C0
:100CC000D5E79DF82F30012B4AD1582294F8B8303F
:100CD000CDF838B002FB0343734AD96AD86C91420D
:100CE00016D094F8B80005F051FD831E022B834600
:100CF00018D801212046FFF74DFE6C4B1B68984227
:100D000010D06B4B1B6898420AD14FF0010B09E0E1
:100D1000998E04230EAA19440AF022FB0028E0D081
:100D20004FF0050B94F8B830234483F8B0B094F832
:100D3000B8306BB1E21892F8B020012AABD0042A87
:100D40000CD094F8B020042A02D1012284F8B020FB
:100D5000234493F8B030023B022B9CD8B0469AE76C
:100D600001212046FFF716FE504B1B68984218BF22
:100D7000052294F8B83008BF9DF82F20234483F84B
:100D8000B020D4E7231893F8B92032B10130C0B2B3
:100D9000012884F8B800F5D968E093F8B08008F02D
:100DA000FB08B8F1010818BF4FF00108414609F0EF
:100DB00046FC05A9C0B200F067FF00287CD10123E2
:100DC00006FB08F894F8B810059A17FB0181009308
:100DD000214440230EA809F062FC804600286DD112
:100DE00000230DF1120206A90EA809F0A6FC0028A6
:100DF0003CDB05986FD1BDF812300C2B69D10699F8
:100E000007AA0AF0ADFA00286ED19DF81C30012B1C
:100E10006DD8E21892F8B0207B43023A022A8CBFC8
:100E20000022012206FB02332344197D9DF8202075
:100E30009142D5D80AD3597D9DF821209142CFD82F
:100E400004D3DA8ABDF822309A42C9D294F8B83075
:100E50000598234493F8B020012A1FD0023A012AB2
:100E600002D8012283F8B0200AF079FA00264FF068
:100E7000FF085827012E84F8B8603BD90023DFF81B
:100E800034800A4E0A4F0E93012B84F8B83040F29A
:100E900045810E9A022A00F09481FEE70422E1E7E0
:100EA00074A70020742700203DB8F3967027002017
:100EB000B4200020B82000200598D5E705980AF056
:100EC0004EFAB8F1030FD1D140F20113A4F8B030BB
:100ED000CCE74FF0030805980AF041FAB8F1000F8B
:100EE000EFD194F8B80051E74FF00108F3E74FF065
:100EF0000708F0E7A21992F8B930002B40F00981F9
:100F00000AA809F008FD92F8B030042B8DF82F30B4
:100F100006D8012B06D800F0AD8082F8B080A9E099
:100F2000052BF8E707FB0643194630462C31DA6CEF
:100F30000BF041F80128014640F09C8094F8B8007D
:100F400009F07DFB07A9C0B200F09EFE002800F06A
:100F500099804FF0000907980AF001FA94F8B80058
:100F600007A9002800F0CD80012800F0C680FF20EE
:100F700000F08AFEFF2000264FF0580BB2460EA963
:100F800000F082FE94F8B8300BFB03439B6A534594
:100F900019D094F8B82031460BFB0242526A0798E8
:100FA00002EBCA025268039302920AF003FA029A11
:100FB000039B16444E45C0F0A980D4F8B460B9FB39
:100FC000F6F906FB0966D4F8B40009F004FC5823CE
:100FD00094F8B82003FB0242536A926A1968013AF6
:100FE00003EBC2030022D3F804E09C467244904213
:100FF000A3F10803F7D8DCF800300798591A0AF073
:10100000D9F900232046079A0E9901960093FFF71D
:1010100083FD78BB079805F043FB58BB4FF0580998
:1010200094F8B800324609FB0043196A0AF0D1FF70
:101030000146F8B994F8B8300E9809FB03431B6DCC
:101040005A680AF0B7F994F8B83009FB0343D3E9BA
:101050001423013B52F8331002EBC30013684268BB
:10106000C91A0E980AF0A6F907980AF078F90E98AE
:101070000AF075F994F8B830234493F8B030FF2B98
:1010800047D1FEE794F8B830079807FB03439E8EDC
:101090009B6B0EAA1E44314604230AF061F9002816
:1010A0007FF457AF94F8B830BDF8382007FB0343FE
:1010B000B3F836A046F608139A42079819D1BDF83E
:1010C0003A309A457FF445AF04230EAA0AEB060195
:1010D0000AF046F900287FF43CAF46F60713BDF846
:1010E00038209A427FF435AFBDF83A90D144B144EC
:1010F00031E7BAF1000FF0D02BE700F0C5FD082072
:1011000039E7042000F0C0FD022034E70AF1010AAB
:101110003DE794F8B8600136F6B2ABE6234493F8A5
:10112000B9208DF81C209DF81C2002F0FF013AB177
:101130000E9B01330E9394F8B8300133DBB2A3E673
:1011400093F8B030012B15D020460AAA09F0B4FB61
:1011500080B1D8F80050102200210AA80AF085FBBF
:1011600058260023012B84F8B83015D9284615B02D
:10117000BDE8F08F00212046FFF70CFC3368834266
:10118000E7D1D8F800209A42E3D03A689A42CFD10A
:10119000DFE784F8B82031E0E21892F8B9205AB9B4
:1011A00006FB0343D86C0AF0DAF894F8B83006FB73
:1011B0000343186A0AF0D3F894F8B8300133DBB26D
:1011C000D0E794F8B93023B194F8BA30002BE0D1CD
:1011D0000123582606FB034284F8B830106A09F050
:1011E00043FA287194F8B83006FB03431B6A5B6826
:1011F000AB6094F8B83003FB06462E60014B1D68C7
:10120000A9E700BF7027002038B5064D0446BC2270
:10121000002128460AF029FB21462846FFF7D2FC88
:1012200038BD00BF742B0120BFF36F8F72B600234F
:101230004FF0FF30094A03F120010133102B42F82F
:101240002100F8D100234FF0FF30044A03F1600180
:101250000133102B42F82100F8D1704700E100E083
:1012600038B501224FF0FF3400251A4B29465A6049
:10127000C3F84843C3F8084303F580535A60C3F8E2
:101280004843C3F80843A3F55043C3F800558022F0
:10129000C3F8084310480AF0E8FA802229460F48AC
:1012A0000AF0E3FA0E4B8022C3F800552946C3F832
:1012B00008430C480AF0D9FA802229460A480AF065
:1012C000D4FA0A4BC3F808454FF05023C3F808433B
:1012D00038BD00BF00400150808000508081005028
:1012E000009000508090005080910050007001509C
:1012F0002DE9F043079D15B91560002012E0032485
:10130000B5FBF4F404EB4407BD4218BF0134B4F15B
:10131000804F09D2A40001348C4200D838B96FF054
:101320000B001460BDE8F0834FF0FF34F7E704468C
:101330000021DFF8B4E0B94203F1030C04F1040624
:101340002BD3A942274623D201F1010CAC451F78CB
:1013500028BF002324494FEAA70E38BF5B7811F855
:101360000EE0AC4584F800E001EB131E2EBF3D23D8
:101370009B0003F03C034FEA071738BFCB5C07F034
:1013800030071EF80770A3703D2367703746E3707F
:101390000023381A10603B70AFE71CF8034C1CF8B0
:1013A000023C4FEAA4091EF8099024011CF8018CA4
:1013B00004F0300406F8049C0EEB131919F80440ED
:1013C0009B0006F8034C03F03C030EEB9814E35C1F
:1013D00008F03F0806F8023C1EF80830344606F8CC
:1013E000013C03316346A6E720F400002DE9F043F9
:1013F00000273C463D46DDF81CE0DFF828817545B6
:101400001FD3E4BB00201460BDE8F08301367645AD
:1014100033D013F806C0BCF1200FF7D0AEEB0609AD
:10142000B9F1010FA6EB05050DD0BCF10D0F0AD1E6
:1014300003EB060999F80190B9F10A0F6ED1751CFA
:10144000DDE72E46E3E7BCF10A0FF8D02DB9BCF179
:101450003D0F05D10137022F0DD96FF01500D3E7ED
:101460001CF0800FF9D118F80C507F2DF5D03F2DCE
:1014700001D8002FF1D10134E1E73546C1E74FF043
:10148000060C04F00706E4080CFB06F60CFB04F45B
:101490000736E41B04EBD60470B18C420CD800274D
:1014A000014603263C46DFF87CE0DFF87C801D44E3
:1014B0009D4205D10C1AA5E76FF00B001460A3E75D
:1014C00013F8019BA9F10A0C5FFA8CFCBCF1160F12
:1014D00004D848FA0CFC1CF0010FE9D01EF809C032
:1014E0000134BCF1400F08BF013E0CF03F0C042C4E
:1014F0004CEA8717DCD17EB13C0C012E0C7002D176
:1015000001310024D4E7022E4FEA17244C7016BF95
:101510008F7002310331F4E73446C9E7002DA2D0C1
:101520009BE700BFA0F30000F6FFBFFF2DE9F047E7
:10153000058B04462807904611D4022905F00705BB
:1015400040F0CD80204609F027FD78B10138218B8D
:10155000042811D8DFE800F0C3106D85950001293B
:101560000CBF45F0100545F02005258388F3118850
:10157000BFF36F8FBDE8F08701F0070AAA4500F0BE
:10158000A6800027B9463E46A368002B00F0BD8028
:1015900041F00801218388F31188BFF36F8FA168A0
:1015A000002900F0BB800D68002900F0B7803346A9
:1015B00052462046D1F80480C047002D76D02B68D3
:1015C00029461D46F0E701F007035A1F012A1BD8E0
:1015D000002221F00701062B276889B2C4E9002206
:1015E00009D13B4603E0628B013262831B68002B0A
:1015F000F9D141F002012046218309F0CDFC0028F9
:101600007BD041F0200177E0042B0AD121F00701C3
:1016100089B22046218309F0BFFC10B141F02001BE
:101620002183218B01F0070AAA4550D00027B94633
:10163000AAE7236921F0070141F00601062DD3F83E
:10164000009021832DD1B9F1000F40D041F0080165
:10165000218388F31188BFF36F8F20463949C8472B
:1016600029E021F00701236941F0040189B2042D2A
:10167000D3F804902183E6D000274FF0040A3E46B9
:1016800082E721F00701236941F0050189B2052DA8
:10169000D3F808902183D6D000274FF0050A3E46A4
:1016A00072E700274FF0060A3E466DE72B4687E7B4
:1016B000B9F1000FD1D14FF02003EFF3118883F37C
:1016C0001288BFF36F8F238B23F008032383258BAE
:1016D000EA062ED525F01003238305F00705666979
:1016E000218B002EBFF66FAF00232768C4E90033BB
:1016F00021F0070141F001012183218B4FF0000906
:1017000001F0070AAA457FF43FAF002F9BD041F0BC
:101710000801218388F31188BFF36F8F002FC7D092
:101720003D68394633465246204609F061FC2F4653
:10173000F4E7AB067FF51AAF25F02003238305F00D
:101740000705FFE61DB000002DE9F04F82464FF07F
:1017500000098DB01D46531E01910393039B5878D9
:101760005C1C252819D100204FF0FF381E46444646
:1017700003460236029031780396392955D81F293D
:1017800014D8002900F0F18101992520D047019952
:101790003078D04709F10209E0E7002800F0E58140
:1017A0000199D04709F101090394D7E7A1F120027B
:1017B000192AE9D801A757F822F000BF2518000020
:1017C00089170000891700002518000089170000FC
:1017D000A51800008917000089170000891700006C
:1017E00089170000F1180000251800008917000073
:1017F00005190000B118000089170000BF1800008B
:10180000DF180000DF180000DF180000DF180000FC
:10181000DF180000DF180000DF180000DF180000EC
:10182000DF18000008460136A5E7582900F0EE80D1
:10183000A1F16302D7B2172FA6D8172AA4D801A7FF
:1018400057F822F0B31A00002B1900008917000086
:1018500089170000891700000B1900002B190000E0
:1018600089170000891700000B1900008917000074
:101870008917000089170000E71900008917000088
:1018800089170000871A0000891700002B19000033
:101890008917000089170000E71900008917000068
:1018A0000B19000025200199D04709F1010955E7DE
:1018B000029A4FF0000802F0FE020292B3E7002CF9
:1018C0000DDAB8F1000F0DDA029A002A00F0458116
:1018D0000A2224EAE47402FB0414303CA3E7B8F1C2
:1018E000000FF5DB0A2202FB0812A2F130089AE78A
:1018F000B8F1000F55F8042B80F23181002A80F2F4
:1019000030815442022202928DE7682903D1682B6C
:1019100006D1482387E76C2902D16C2B00F0238184
:10192000002B7FF431AF0B467DE77A2B06D175296A
:1019300055F8046B14D14FF0000B0CE06C2BF6D073
:101940004C2BF4D1073525F00703752903F1080561
:10195000D3E9006B06D120283ED1864F013C09E037
:101960004FEAE67BBBF1000FF5DA7642824F6BEB74
:101970004B0B013C0DF12D030593002304933046DE
:1019800059460A220023FEF7E5FB049B303203F19F
:10199000FF3CCDF810C0DDF814C00CF8012DCDF8D7
:1019A00014C0B4465A46BCF10A0F72F10002064652
:1019B0008B46E4D2C3F1010B30330DEB0306B8F1D3
:1019C000000FA6F104066DDA029BD9077CD4A8EBC0
:1019D0000B03A4EB0B0413E02B280ABF674F684FDF
:1019E00004F1FF34C6E770290FD155F8042B00230A
:1019F000FAB96FF004034FF0050B624E053C604FDF
:101A0000029A92076FD4A04665E078216C2B03D12F
:101A1000002355F8042B08E04C2BF9D1073525F0AD
:101A200007031D465B6855F8082B232825D1880637
:101A300021D5554F023C002601F06001A1F1390B80
:101A40000DF12D0E02F00F01092988BF59443031E4
:101A50000EF8011D102A4FEA121141EA03714FEAF4
:101A6000131073F1000306F1FF3C08D2C6F1010B1D
:101A700006F13003A1E7454FDCE7414FDBE766465F
:101A80000A460346DEE755F8046B304609F0B4FE1B
:101A9000B8F1000F834602DB4045A8BFC3464FF0B4
:101AA0000008374FA8EB0B03002B92DDA4EB0804D2
:101AB000A6E755F8043B4FF0010B8DF81830013CB8
:101AC0004FF0FF3306AE9AE7A046EBE702932020E3
:101AD0000199D047029BB8F10108F7D524EAE472D6
:101AE000013C9144A41AB84606E00493029201997D
:101AF000D047029A049B9046424612F8010B0028F8
:101B0000F3D11A46013A15D5002BACBFC7EB03073A
:101B10007F425B46013B15D5BBF1000FA8BF5F4478
:101B200026464F44013E14D5002CA8BF3F1907EBB1
:101B3000080913E60493029230200199D047049BD0
:101B4000029ADFE70293019916F8010BD047029B36
:101B5000E0E701992020D047E4E70122D3E6904650
:101B600061E614465FE64C235DE648460DB0BDE8ED
:101B7000F08F00BF73F4000071F4000075F40000F2
:101B800035F500007DF4000077F400007AF40000E1
:101B9000054B03EB8000D0F8003223F0E04343F024
:101BA0004053C0F8003270470025845010B54FF004
:101BB0002003EFF3118483F31288BFF36F8F0122A8
:101BC0000C4B0D49C3F8002502230020C1F8D03684
:101BD000FFF7DEFF1046FFF7DBFFC1F80427C1F86F
:101BE0000429C1F8002B84F31188BFF36F8F002004
:101BF00010BD00BF0010005000400050052370B51C
:101C0000144D154E2C780134B4FBF3F303EB83032E
:101C1000E41A0AF0CCF9114A137823B156F82430AB
:101C2000C01A072814D94FF05023D3F8141141B12A
:101C30000021C3F81411D3F814312C700CB901230E
:101C400013702C780AF0B3F946F82400012070BD17
:101C50000020FCE7475F0120302C0120465F012077
:101C600048B1054B054A1B68B3FBF2F35843044BDC
:101C700043F00103184770478821002040420F00BD
:101C8000E0EC000005F072B970B5114B0D461C6810
:101C9000DCB1104B196800238B4202DB6FF00100AE
:101CA00070BD224612F8106B864202D014460133F2
:101CB000F2E7E06810B96FF01200F1E70CF035FAC6
:101CC0000028F8D000202C60EAE76FF00C00E7E76E
:101CD0001421002054ED000070B588B005460C4674
:101CE000C0B269461646FFF7CFFF00281BDB0098FD
:101CF000C8B143682268029383680195CDE9033631
:101D00000023CDE906230593C56809F028FB6DB1D2
:101D10002846084901AA09F0A5FF079808B9059BBC
:101D2000236008B070BD6FF01500FAE76FF0120085
:101D3000F7E700BFF9B30000F0B40C4B0C4E5F6A3C
:101D40000C4BB34203D36FF08500F0BC70475D6865
:101D5000BD4209D31C693CB195F802C00579AC4578
:101D600002D12346F0BC18472433EAE7442C012073
:101D7000902400206C2400202DE9F04705460E46F3
:101D80001746124CDFF84880DFF84890444503D3EB
:101D90006FF08500BDE8F0876268D9F824309A4278
:101DA00012D3A36983B190782979884205D13A4644
:101DB00031462846BDE8F04718475279012A03D139
:101DC0003A463146284698472434DFE76C24002001
:101DD00090240020442C01202DE9F04105460E46B8
:101DE00017460A4CDFF82880444502D36FF085007F
:101DF00009E063690BB92434F6E73A4631462846D0
:101E000098470028F7D1BDE8F08100BF6C2400207E
:101E10009024002010B5044609F071FD10F1780FF0
:101E200000D050B9204609F009FB044AD2F8C4306A
:101E300023EA00030020C2F8C43010BD442C012066
:101E400008220021014809F010BD00BFFF2C01202D
:101E500070B50B4B0B4CA34201D3002070BD002288
:101E6000196A1E7F0439D5B2AE4201D82433F2E795
:101E7000013211F832508542F5D10120EEE700BF62
:101E80006C2400209024002008B509480378C3F38F
:101E900041130A3350F823303BB100F1080200F13E
:101EA00010019847C043C00F08BD1846FCE700BFAB
:101EB000442C012004282DE9F14F04460F46DFF899
:101EC000949016D001282DD1DFF88C8098F8B93085
:101ED00043B300F0E5FD214D4D4520D24FF0000AFF
:101EE000D5F820B02B7F5FFA8AF6B34204D82435A8
:101EF000F2E7FFF7A5FFE7E70BEBC606307909F03D
:101F0000FEFC0246307909F099FAD8F8C430002A6C
:101F100023EA0003C8F8C4300AF1010AE2DA002318
:101F200088F8B9300D4D4D4508D30B4B1B6A6BB18A
:101F30003946204601B0BDE8F04F1847EB681BB1A9
:101F40003A462146284698472435ECE701B0BDE8DB
:101F5000F08F00BF90240020442C01206C2400202E
:101F600073B5C4B263060D468DF8074007D020460E
:101F7000FFF76EFF78B10D4B93F8BA0058B12046C9
:101F80000A4E55B102F020FFF3691BB108200DF194
:101F900007019847012002B070BD02F03DFFF369D0
:101FA000002BF7D009200DF10701F2E7442C0120A6
:101FB00073B586781E4C8DF800600379427943EA48
:101FC0000223ADF80230C378304603F003038DF8E6
:101FD000043009F033FAD4F8C430054618420BD067
:101FE000304600F03FFD3046FFF714FF0CF020F9BB
:101FF00010B9962007F0A8FE684602F0C1FE10F165
:10200000780F03D010B1002002B070BD9DF8000021
:1020100002F03EFF10F1780F01D00028F3D101202B
:10202000D4F8C43084F8B9002B43C4F8C430EBE7CB
:10203000442C01202DE9F047924D0446AB690E4631
:102040001746C3B9207800F01F00012876D0022877
:1020500000F0DC8000BB94F900103A680029637836
:102060002EDA062B0CD0082B25D0ABB953700123E8
:102070001370022303E198470028E3D100200DE00C
:102080006388190A0A1F012A8C4605D9072903D833
:10209000DAB26B6A1C781CB96FF01500BDE8F087E6
:1020A0005D78654503D1824200F0E480013023442D
:1020B000F0E71B78E3E095F8BA3013700123DEE017
:1020C000052B11D0092BE7D163886E6A002B32D122
:1020D000FFF7B6FE638885F8BA30EB69002BCDD0E8
:1020E000032069499847C9E7A07802F037FE002825
:1020F000C4D0D1E77378042B10D0052B11D0022B5C
:1021000004D177796388BB4208BF012033781E442D
:102110003378002BEED10028BED0D9E796F80380A3
:10212000F4E76388BB42F1D1B8F1000FEED130463D
:10213000FFF73EFFEAE7FF27B846E9E795F8BA3030
:10214000D7F800C0002BA7D06F6AA2883B4694F84E
:1021500004E0187800289FD05978022904D193F818
:102160000480F04500F292800344F2E78CF80030DE
:102170008CF80130316081E71F4493E00B2B8BD149
:1021800000264FF0FF08B246C14606E07B78042BDC
:102190000FD0052B21D03B781F443B78002BF5D185
:1021A000EB6913B1514607209847002E7FF466AFC4
:1021B00072E797F80280A38897F803909845EAD1D0
:1021C00063889945E7D1B8F1070F1CD805EB0803E0
:1021D000BA46012683F8BB90DDE7A3884345DAD1F0
:1021E000A3784B450AD0BE78304600F03BFC304621
:1021F000FFF710FEB0FA80F67609CCE73846FFF715
:10220000D7FE0646C7E7BA460026C4E794F9002081
:102210006378002A18DA002B7FF43EAF24793F68F8
:1022200063060AD02046FFF713FE00283FF434AFC0
:1022300095F8BA30002B3FF42FAF3946204602F014
:102240000BFE00237B7014E7012B08D0032B7FF4D7
:1022500023AF6388002B7FF41FAF012103E0618867
:1022600000297FF419AFA088FFF77AFE00287FF4D9
:1022700005AF11E702293B607FF41BAF5B88336039
:10228000FCE600BF442C0120FE2C012094F9000044
:1022900063780028BFF672AF002B3FF467AF0A2BBC
:1022A0007FF4FAAE3B78002B3FF4F6AE7978042940
:1022B0007FF462AFB9788A427FF45EAF072A8EBF9F
:1022C0000023521992F8BB308CF80030F6E600BFBC
:1022D00070B5164D95F8B830FBB102F01FFD00281F
:1022E00022DB00F0DDFB0024D5F8C430E6B2E34089
:1022F000DA0714D4D5F8C43004F11002D340DB0758
:1023000005D546F08000FFF785FD00280CDB013481
:10231000102CE9D1002385F8B830002004E03046C5
:10232000FFF778FD0028E5DA70BD00BF442C0120DE
:1023300013B5134C237DCBB9E26801AB8020A168B3
:10234000019209F08AF8019AA3681344A360E36834
:102350009B1AE36043B93AB12369E2889A4203DDEC
:102360009B0601D10123237502B010BD00238020FC
:102370001A461946237502B0BDE8104002F0B2BDFE
:10238000442C0120002330B585B002460D46019350
:10239000002858D1002935D108220B460DEB020147
:1023A00009F0C6FA002804DA802002F00DFD05B01D
:1023B00030BD2A4C029AC4E903552260039ABDF845
:1023C0000E30626004F13802A2609DF90820257584
:1023D000002A0ADB802B04D9802002F0F5FC0020C3
:1023E000E3E713B1C4E90333E1E7FFF74DFD00284C
:1023F000DAD0E28823699A42D4BFE260E360FFF753
:1024000097FFD4E7154C01ABD4E90215002D04DC8D
:1024100009F08EFA0028CADAC6E72A4609F088FAD7
:102420000028D9DB019AA3681344A360E3689B1AD0
:10243000E360002BBBD104F13803A360FFF724FD58
:102440000028DCD1B0E78028B1D1044BDA68002A3B
:10245000D5D11B7D002BD2D1A9E700BF442C012090
:10246000054B064A58629A62054A0020DA62054A1C
:102470001A63054A9A617047442C012035200000F8
:10248000391D0000D91D0000791D000010B5084B52
:1024900093F8B84034B900F0D7F830B1FFF7E0FF57
:1024A000204610BD6FF07700FBE74FF0FF30F8E7F4
:1024B000442C01202DE9F34104463B4D4FF0FF32FF
:1024C0004FF0FF33394806F0AFFF95F8B860002EA3
:1024D00067D137482C62E86102F01EFE02F0ECFB87
:1024E000041E42DB00F000FB041E3EDB4023684676
:1024F000ADF802308DF804608DF8006002F040FC09
:10250000041E32DB802768468DF8007002F038FC2C
:10251000041E2ADB3046274902F0EAFD041E24DBB4
:102520003846244902F0E4FD041E1EDB224CDFF88D
:102530008C80444520D3002002F0AAFC041E14DB4A
:10254000D5F8C430802043F00103C5F8C43002F050
:102550009FFC041E09DBD5F8C430002443F480330B
:10256000C5F8C430012385F8B830104806F0D6FF0E
:10257000204602B0BDE8F0810026276A227FF3B230
:102580009A4201D82434D4E707EBC30257F833103A
:10259000107902F0ADFD01360028EFD04FF0FF3486
:1025A000E3E76FF07704E0E7442C01206423002088
:1025B000B51E0000852300006C240020902400201C
:1025C00030B51F4B8BB005AA03F1100514461868EF
:1025D0005968083303C4AB422246F7D11B78102256
:1025E0002370002101A809F040F9122200211548AA
:1025F00009F03BF9102101A809F0ADFB00281BDD13
:102600000828B8BF082001AB09381A1800200D4966
:1026100012F8013F0AAC04EB131403F00F03283344
:102620006B4414F8144C13F8143C013008280C7057
:102630004B7001F10201EBD102480BB030BD00BF7D
:1026400092F40000485F01202DE9F04F634C85B003
:1026500000264FF0011BB1463546B24623782BB910
:102660005F4B02349C42F3D15C481CE06378052B3D
:1026700005D8DFE803F0790403790725A24623781B
:102680001C44EBE7E378002BF9D1A37873B109F18F
:1026900001095FFA89F9F2E76A68944209D02435A2
:1026A0009D42F9D3002005B0BDE8F08F4D4D4E4B53
:1026B000F6E7AB68002BEAD0494620469847E6E7A4
:1026C000002DEFD0002301212A7F9342EAD22A6A0B
:1026D000A77802EBC3021079874201D00133F3E7F8
:1026E0000127E0785FFA87F800F003008DF80C000E
:1026F000207994F805C040EA0C20ADF80A0094F95E
:102700000200002825DA07F1100001FA00F010EAB3
:102710000B0F25D148F080008DF8080002A8CDE904
:10272000003209F0D4F8DDE900320121C0B99DF88A
:10273000083013F0800FA37013710B461DBF08F112
:1027400010085FFA88F801FA08F3BB404BEA030B64
:1027500095E701FA07F010EA0B0F01D14046DBE7DD
:102760000137102FBDD1B9E7032E1DD1FFF728FF88
:10277000074668B109F040F8804648B11B4809F0A7
:102780003BF8804504D142463946A01C09F062F866
:102790006FF002012378091BE21804EB5303D142C6
:1027A00013D50136F6B26AE7002EF1D1BAF1000F67
:1027B0003FF478AFA4EB0A038AF80230C3F307238F
:1027C0008AF803308AF80490EBE74FF0000002F833
:1027D000010C13F8010902F8020DE0E7882300203C
:1027E000692400206C2400209024002092F4000032
:1027F000094B00211A4610B51C78844204D15C684C
:1028000014B102EB811010BD0131042903F1400322
:10281000F2D10020F7E700BF0C2D01202DE9F34194
:1028200050F8283C0446103310F82C6C10D1036982
:1028300050F8202C99073CD502BB13F0040304D1B7
:102840001A461946304608F008FE002344F8283C92
:1028500054F8283C10330ED054F8185C5DB154F88D
:102860001C7C54F8148C0BF0E3FC00284CD021465F
:102870002B480BF0D6FD02B0BDE8F08150F8241CC7
:1028800001AB304608F0E9FD10B16FF01503DDE74C
:10289000019A54F8243C134444F8243C54F8203C56
:1028A0009B1A44F8203C54F81C3C134444F81C3C4C
:1028B000CEE750F8241C01AB304602F08FFB002815
:1028C000E3D1019D54F8243C2B4444F8243C54F8B3
:1028D000203C5B1B44F8203C54F81C3C2B4444F83F
:1028E0001C3C002DB1D0304602F01CFCB5FBF0F3CF
:1028F00003FB1055002DA8D154F8203C002BA4D088
:10290000304602F0B3FBA3E744F8180CA4F1100022
:1029100006F074FE424639463046A847ABE700BF92
:10292000902400204B1E012B73B506460D460FD890
:10293000FFF75EFF044668B9012D09D101AB012202
:1029400030460DF1030102F049FB019B002BF5D14C
:1029500002B070BD0BF06CFC04F12C0108B1012D2C
:1029600005D1084602B0BDE87040FFF757BF0348E5
:1029700002B0BDE870400BF054BD00BF90240020B1
:102980002DE9F74F064615469846019108F0ABFD34
:10299000044600285CD14FF02003EFF3118A83F343
:1029A0001288BFF36F8FDFF8B0B0002200235846C3
:1029B00006F044FE70B9DFF8A490A70109EB841477
:1029C000636813F1100F14D10193584606F016FEF8
:1029D000019B06E00134042C0BF1400BE5D16FF0B4
:1029E0000B038AF31188BFF36F8F184603B0BDE85D
:1029F000F08F019B2061C4E902350C9B3046636176
:102A00000D9B09F80760A3616FF00F03C4F83C80C9
:102A1000636002F087FB58B1304602F083FBB5FBE0
:102A2000F0F303FB10551DB1E36B43F00403E363C4
:102A300018F0020F07D007F12C01094849440BF0A8
:102A4000F0FC0023CDE7304602F010FB0346C8E758
:102A50006FF00F03C9E700BF282D01200C2D0120C6
:102A60009024002010B54FF02003EFF3118483F37E
:102A70001288BFF36F8FFFF7BBFE50B1436810336E
:102A800007D16FF08B0300F12C01436003480BF07A
:102A9000C8FC84F31188BFF36F8F10BD9024002011
:102AA00070B504250E4C4FF02003EFF3118683F32D
:102AB0001288BFF36F8F6368103307D16FF08B03F9
:102AC0000848636004F12C010BF0ABFC86F311881D
:102AD000BFF36F8F013D04F14004E4D170BD00BF2E
:102AE0000C2D01209024002070B50025094C0A4EC1
:102AF000314620460BF078FC0122A4F1100011466B
:102B000001350BF034FC042D04F14004F0D1002019
:102B100070BD00BF382D01201D28000070B504468F
:102B20000E4601791248154608F0BAFCE8B194F94E
:102B300000206378002A11DB202B04D0222B09D03F
:102B40006FF0850005E007222968103808F082FE42
:102B5000002070BD638800F8093CF9E7212BEFD114
:102B60000723103828603360F2E76FF01200F0E7B7
:102B70000C2E0120014608B5034808F09EFC10B158
:102B8000012300F8073C08BD0C2E01200123016938
:102B900081F84B300B6833B191F849301BB10248D2
:102BA00008310BF03EBC70479024002001230169DE
:102BB00081F84A300B6833B191F848301BB10248B4
:102BC00008310BF02EBC70479024002000210346F2
:102BD0000C4AA0F84810106883F89C10C3F89400C1
:102BE00090889279A3F8980083F89A2083F89B1034
:102BF0004022A3F89E1083F8A01003F14C0008F0C7
:102C000034BE00BFD0EC000038B5056995F89E00D1
:102C100088B195F89F307BB985F84830D5F8900099
:102C200008F01AFB044600220023044805F11801AD
:102C300006F054FE204638BD0020FCE7902400201A
:102C400013B504698DF8071094F89E30A3B194F879
:102C50009F308BB90DF107010122D4F8900084F860
:102C6000483008F0F9FA014640B1212200230C480F
:102C700004F1180106F032FE02B010BD0122D4F8B2
:102C8000900008F039FB0028F6D00122D4F890001B
:102C90000DF1070108F0E0FA0028E6D1ECE700BFEB
:102CA00090240020F0B5D0F88C3005465B6885B0E4
:102CB0001B6A1F7D384608F016FC0646E0B94FF443
:102CC0008062A86F03A908F0E6FA0446A0B1830663
:102CD000A5F1180385F830600193084B08BF00F197
:102CE000FF3403990093224602233846FFF748FE3B
:102CF0002146A86F08F0EBFA05B0F0BD012D0000E9
:102D0000012310B582F84830136814463BB192F89D
:102D10004A3023B10A4802F108010BF082FBD4F8D3
:102D200090309A681B699A4208D004F11801002279
:102D3000BDE810400023024806F0D0BD10BD00BF22
:102D400090240020002310B50469C4F8A8300C4B6F
:102D5000C4F8A400596804F1A80269B9C3E90022C3
:102D600004F1080007490BF03FFB04F11800064985
:102D70000BF068FB002010BD0A605A60F0E700BF4E
:102D80000C2E012011B50000A52C000030B54FF429
:102D900000334268056942F2A10085B0CDE9010324
:102DA000002385F89D30106AADF80C100A220079D6
:102DB00001A908F052FB054C95F89D3023B901207C
:102DC0000BF07EFC013CF7D105B030BDA1860100BF
:102DD00073B5144602F14C060A1E05461FDD314646
:102DE000D4F88C0008F038FA012384F849302368BD
:102DF0003BB194F84B3023B10E4804F108010BF0BD
:102E000010FBD4F88C104B684A699A1ACB699B1A4C
:102E10003F2B04D8012384F8A03002B070BD064BCC
:102E2000402200933146012328460194FFF7A8FD74
:102E3000F3E700BF90240020D12D000038B50D46E7
:102E400001461E4808F021FB044680B3024652F8B2
:102E5000A439691E5B68052929D8DFE801F020281C
:102E60000320252914F8061C31B91B6A187BFFF7CB
:102E7000AFFF012304F8063C14F85C3CBBB9012306
:102E800004F85C3C54F8A43C8BB114F85A3C73B180
:102E9000A4F19C010A48BDE838400BF0C2BA1046C4
:102EA000BDE83840FFF792BE012304F8053C38BD69
:102EB00014F8053C002BFAD00023F6E70C2E012075
:102EC0009024002037B50024084D4FF0FF334FF415
:102ED000806228460649009406F0C8FC0549284649
:102EE0000BF0ACF9204603B030BD00BF90240020A9
:102EF000A8680520D8F40000014807F04DBA00BFCB
:102F000008EE000038B5044618B90F4B0F485B684F
:102F100098476168B1F5683F0FD0B1F5680F0CD0E4
:102F20000B4DA94209D011F4686107D02146094828
:102F30000BF055F900232360656038BD142220682A
:102F400008F093FCF8E700BF10220020E1F4000035
:102F50002C5F5CA91433012008B560B34368B3F556
:102F6000683F0ED0B3F5680F18D0144A934220D0B2
:102F700000684FF0FF324FF0FF3306F055FA58B1BA
:102F800015E001220368D3E8EF1F002903D1C3E84D
:102F9000E02F0028F7D10AD1002008BD0368084AB5
:102FA0001B7803F5807352F82330002BF4D00548CA
:102FB000F3E70548F1E76FF4E040EEE72C5F5CA92A
:102FC00000000350E98FFFFFEA8FFFFF08B520B331
:102FD0004368B3F5683F09D0B3F5680F13D0114AC1
:102FE00093421DD0006806F099FA14E000220368AD
:102FF000D3E8EF1F012903D1C3E8E02F0028F7D160
:1030000009D0094808BD00210368084A1B7803F568
:10301000807342F823100020F4E76FF4E040F1E7FA
:103020000348EFE72C5F5CA9E98FFFFF0000035026
:10303000EA8FFFFF10B5044618B91D4B1D485B68A9
:1030400098476368B3F5683F2FD0B3F5680F2CD06D
:10305000194A934219D1236803BB4FF0FF324FF056
:10306000FF332146154806F0F9F808B923681BB963
:103070000F4B13485B68984714220021206808F022
:10308000F4FB4FF46863636008E0B3F5683F0DD864
:103090003A2B03D040F6BA629342DED120680BF09F
:1030A000E6F8636843F03A03636010BD054AF3E74E
:1030B00010220020E1F400002C5F5CA914330120F1
:1030C00007F500003A00003A08B5064940231422EB
:1030D00005480BF076F8BDE808400449044807F0BD
:1030E000CDB900BF142E01201433012010EE0000D2
:1030F00024EE0000F7B5224E306883685B6C03B1A4
:103100009847306883685B6B002B31D11D4C1E4D96
:10311000306883689B69002B2DD001220DF10701D7
:103120009847012827D1236843B92B681BB36968E6
:103130001A688B422A6008BF6A602360134A9DF8B0
:10314000070011887F2904D823684F1C0B4417807F
:1031500018720A28DCD10020236811881860596091
:103160000B494D684DB9C1E9003310802060CEE7AE
:1031700098470028CAD103B0F0BD2B604B60F4E73C
:10318000883701203033012040330120444601209C
:103190003833012010B5044B044618688368E1B247
:1031A0005B689847204610BD88370120F8B5054672
:1031B000164608464FF02003EFF3118783F3128879
:1031C000BFF36F8F1B490B684BB11B4C62689A426F
:1031D00005D000221A60626862B9C4E90033174A58
:1031E000136853B987F31188BFF36F8F18460B60CC
:1031F0003360F8BD13606360F1E7D2F804C01C6867
:103200006345146008BF546087F31188BFF36F8F64
:103210005C680B60A042D8BF00F1FF3403F10801E5
:103220002246284608F016FB0023601C2B5501237C
:10323000DEE700BF34330120403301203833012062
:10324000002337B51C462349234AC1E90033C2E9AC
:103250000033224A4868146088B9C1E9002201336A
:10326000082B02F18802F5D11D4D1E4828600AF096
:103270005CFF38B94FF0FF34204603B030BD026028
:103280004A60ECE70020FFF715F904460028F1D169
:103290002868836823B19B6C13B122461249984772
:1032A000286883685B6B0BB1984748B128688368CE
:1032B0009B69002BFAD001220DF107019847F4E732
:1032C00000220A4B28681A8083689B6A002BD3D09F
:1032D0009847D1E74033012038330120483301209B
:1032E0008837012034E90000F53000004446012011
:1032F00041F204432DE9F043ADF54B7DADF80C30C0
:1033000040F606130025ADF81030DFF80C91434B62
:10331000D9F800101B68424E0822A3EB06080B7870
:103320004D7001330B7098FA98F34B808B882846C8
:103330005BBA8B8007F04AFF31464246ADF8140075
:1033400007F044FF02271FFA88F440BA04F10A0389
:103350005BBA0222ADF814000DF1160107A8ADF812
:10336000163008F077FA0822D9F800100DF11E0087
:10337000ADF8167008F06EFABDF8160007AB08300D
:1033800080B231464246ADF81600184408F062FAA1
:10339000BDF816303A461C44A0B22C4607ABADF837
:1033A000160005A9184408F055FABDF8163040F289
:1033B000BD113B449BB2ADF81630009306AA07AB93
:1033C0005AA8FDF795FF069B164E174FADF816301D
:1033D000BDF81630A34203DC0DF54B7DBDE8F0834C
:1033E000336802215B68A4B904A89847BDF8165059
:1033F00033682D1B7C2DA8BF7C255AAA101929469D
:103400005B6898473368012138465B682C449847CD
:10341000DEE703A8E9E700BFD0370120A03701208D
:103420005A5F0120D437012034F50000F0B50C6854
:10343000164F85B002380D46C4F580610090144BDC
:10344000381903AA0131FDF7D1FF0446D0B92B6822
:10345000039A1344022B2B6011D93E88023B76BAA3
:10346000B6B29E420BD13246B91C07F0AFFE30B95E
:10347000022E04D92B689A1E2A60FC54012420468F
:1034800005B0F0BD4FF0FF34F9E700BF9B600120AD
:103490009E64012007B5CDE90001694602480AF0A3
:1034A00030FE03B05DF804FBA037012038B50546B7
:1034B0000A4C0A2120460AF02BFE02210848FFF799
:1034C000E9FF294620460AF003FE20460A210AF0B9
:1034D00027FEBDE83840FFF70BBF00BFA037012033
:1034E00087F20000002307B5054A0093022102F588
:1034F000A07304480AF016FE03B05DF804FB00BF99
:103500005A5F0120A03701202DE9F04F072904461A
:10351000B9B040F2F880037813F0FD0840F0F38072
:103520004388A1F108055BBA9BB2AB42C0F0EB80C7
:10353000AC4B00F10807186083885BBA8380FFF703
:10354000D1FFA688012E40F01E82E47944B1012CFF
:1035500000F0DC80082039B0BDE8F04FFFF7A6BFCF
:103560003146A1480AF0D4FD0621A048FFF792FF9A
:1035700005219D480AF0C8FDDFF87492DFF874A2B7
:103580000026DFF8748200E001263146204607F06D
:1035900056F808A9C0B2FEF777FB0546002840F0B0
:1035A00087803146204610AA03F032F8012805D161
:1035B00020232946089810AA07F0D2FE109BD9F8BC
:1035C0000050534516D13146204603F037F80546E2
:1035D0008A4B1B6898420DD140230021019328ABF0
:1035E00000930846CDE90311089B029110AAFDF74C
:1035F00001F805460023089F00933A464FF6FF73F3
:1036000010A90AA807F04BF8002857D04FF0FF3751
:10361000089807F0A4FED8F80030AB4248D1142136
:1036200071480AF075FD05217548FFF733FF214603
:103630006D480AF057FD04217248FFF72BFF314611
:1036400069480AF04FFD5FB904216F48FFF722FF78
:1036500018AB0A93202364480AA90B930AF04EFD85
:1036600007216A48FFF716FFBDF856304021019345
:103670009DF85530664A009328A89DF8543000F014
:1036800079FF169B4BB1421E3E2A06D828ADC0F1E9
:103690004001604A284400F06DFF28A808F0ACF80B
:1036A000014628A8FFF7F6FE14214F480AF038FD1E
:1036B000002E3FF469AFE4B9344661E70DF11E0313
:1036C00007AA09A90AA807F038F800289ED1BDF872
:1036D0001E30102BF2D1BDF81C30202B96D138466D
:1036E000099918AA07F03CFE071E18BF01277F4260
:1036F0008EE705213C480AF00FFD01213A480AF007
:103700000FFDFFF7F5FD39B0BDE8F08F38462946CB
:1037100010AB18AACDF8288000F058FA074600B37D
:1037200003240A2130480AF0F3FC02213A48FFF74B
:10373000B1FE21462C480AF0CBFC44B9032137489E
:10374000FFF7A8FE364B284819680AF0CBFC0A217F
:1037500025480AF0E5FCFFF7CBFD0A9807F0FFFDCE
:10376000D1E7109B9D42DBD14FF0FF3A3A465546D8
:10377000B946B846279818AB824222D16B1CCFD0ED
:10378000B8F1000FCCD03846FCF7DEFE0AA9C0B273
:10379000FEF77AFA04460028C2D1214E002D40F0EF
:1037A00084800A9D30602846D5F808B007F018F8E4
:1037B0001C4A0146284606F059FF002836D001244D
:1037C000AFE7197A032904D8DFE801F00206092ED1
:1037D0001F6801320C33CFE7D3E90089F9E7D3F84A
:1037E00000A0F6E7D0370120A037012036F5000011
:1037F000B82000203DB8F39670270020B0200020AC
:103800003DF5000043F5000048F500004DF50000CF
:1038100055F5000061F5000087F2000064F5000036
:103820009C370120943701201D68D2E7D345FFF46F
:1038300077AF6B4B1C606B4BC3F800A03268684DD0
:10384000013A29680A984A4407F07CFF002828605A
:10385000FFF666AF0A9807F0C1FDB9FBF0F3DFF899
:1038600084A103FB10903368DAF800204B44C5B202
:10387000934238BF00205FFA80FB0A9807F0AEFD44
:103880000128A9EB050506D90A9807F0A7FD01381C
:1038900018EA000F54D12B46424631680A9807F0C7
:1038A00074FD00287FF43CAF2EE03368AB427FF418
:1038B00038AF4C4B4D441B689D42BFD930E7A945FA
:1038C0000A9888BF5FFA85F907F08FFD402201460C
:1038D00028A807F0CAFF4A46414628A807F0BAFFC1
:1038E0004B4631680A9828AA07F04FFD08B10446F4
:1038F00017E73368C8444B443360A5EB09050A98C1
:1039000007F06CFD8542DAD2BBF1000F1BD13368A2
:10391000DAF800205B442B44934233607FF401AF1C
:10392000314B0A981A68114607F00CFF0028FFF681
:1039300046AF3846DAF800200A9908F050FBD6E77F
:103940004FF04009DBE70A9807F04FFD08220146D7
:1039500028A807F08AFF5A4608EB050128A807F0B7
:1039600079FFDDF828803168404605EB010907F052
:1039700035FD4946034628AA404607F006FD0028C3
:103980007FF4CEAEC3E7E6B9E379012B05D0052B72
:1039900005D0002B7FF4DEADB5E63046DBE53046E2
:1039A00008F024FB01280AD03046FFF77FFD4FF4D2
:1039B0000050002106F0AEF9012007F0BDFC0A20FE
:1039C000C9E52A4639462046084BFCF7CFFD0028BA
:1039D0007FF499AE39B0BDE8F04FFFF789BC00BF66
:1039E000903701208C37012094370120A037012027
:1039F00001232DE9F34100250646DFF8C080304C55
:103A000088F800302F4B304F0095186098F8003040
:103A100013B902B0BDE8F0812C4BC5F58061C3F845
:103A20000046C3F80446C3F80846C3F80C46C3F87A
:103A30001046C3F81446C3F81846C3F81C4603F5ED
:103A40008053C3F80046C3F80446C3F80846C3F8D9
:103A50000C46C3F81046C3F81446C3F81846C3F81A
:103A60001C46336801AA0131781998470028019B48
:103A700001DC002BCAD005442BB940F201439D4222
:103A8000C4D10025C2E73B78062B09D17B78092BEE
:103A90000BD1002300936946A81EFFF7C7FC04E082
:103AA000042B02D17B78142BF5D00128E9D10099A1
:103AB00007480239FFF728FDE3E700BF9A600120BD
:103AC0003546526ED43701209C640120008001509D
:103AD0009D60012073B504460D460AF0BEF800282B
:103AE00068D0354B694600930523204601930AF0C0
:103AF0001FFA60B1294620460AF014FA38B10023B3
:103B00002B7220460AF0B0F8012002B070BD2046AA
:103B10000AF0A6F878B1294B6946009304232046A1
:103B200001930AF005FA30B1294620460AF0FDF962
:103B300008B10123E4E720460AF092F878B1204B5F
:103B4000694600930323204601930AF0F1F930B14E
:103B5000294620460AF0E6F908B10223D0E72046BC
:103B60000AF07EF878B10326164B6946204600938A
:103B700001960AF0DDF930B1294620460AF0D2F963
:103B800008B12E72BDE720460AF06AF878B10E4BF4
:103B9000694600930323204601930AF0C9F930B126
:103BA000294620460AF0C1F908B10423A8E72046B7
:103BB0000AF05AF80020A8E73DF5000068F500007B
:103BC0006DF5000064F5000071F500002DE9F0438B
:103BD0004FF001099DB004AC07460E4690461D46C5
:103BE00002460B4620460421CDF800900AF040F82A
:103BF00020460AF0A0F970B10C230521CDE901831C
:103C00004846114B009408F13C020AF0B5F960B93E
:103C100020460AF0ACF90022099BD868DA6090428D
:103C200008BF1F201DB0BDE8F08320460AF09DF9B3
:103C30000028F0D00DB90020F4E7049BDB1BB34251
:103C400094BF2B602E60F6E7D53A000001491022A0
:103C50000A60704710ED00E072B6404080F31188B2
:103C6000BFF36F8F01B5FDF7C9FF002802D0BFF386
:103C70004F8F30BFBDE8014062B6BFF36F8F704712
:103C800072B6494081F3118801B5FDF7B7FF0028EE
:103C900002D0BFF34F8F20BFBDE8014080F31188F1
:103CA00062B6704740B2002807DB01234109034A8E
:103CB00000F01F00834042F82130704700E100E02F
:103CC00040B200280CDB01220649430900F01F0026
:103CD0008240203341F82320BFF34F8FBFF36F8F13
:103CE000704700BF00E100E0054B420953F8222075
:103CF000012300F01F0003FA00F01040704700BFDE
:103D000000E100E040B2002801F10101ACBF00F188
:103D10006040064B4FEA4111C9B2ABBF00F56140AC
:103D200000F00F0080F800131954704714ED00E004
:103D300030BFFFF7FDBF00BF0B4A08B50B4B22F0A9
:103D40007F029A60BFF34F8FBFF36F8FD3F8882045
:103D500022F47002C3F8882005F0C0F906F086F856
:103D600000F0EEF905F0FAF90000000000ED00E0C7
:103D7000094A0A49936809681867596708494B68EE
:103D800043F080534B60002383F31188BFF36F8FA0
:103D90009368586F704700BF4044012090F10000C5
:103DA00000ED00E013498A684FF030001044EFF353
:103DB000098C80E8F01F202080F31288BFF36F8FFA
:103DC0000D4F4FF000664A698A603E60106F002315
:103DD000136780F3118802F1300090E8F01F8CF334
:103DE000098802F1000004B507F0DCFCBDE80440DE
:103DF000704700004044012004ED00E01EF0040F75
:103E00000CBFEFF30880EFF30980816911F8021C01
:103E10000229FFD001B507F0B6FC01BD42F8203CF5
:103E2000009B0B4942F81C3C019B21F0010142F828
:103E3000183C029B42F8081C42F8143C4FF0807377
:103E400042F8043C0023203A02650367704700BF34
:103E500003AA0000084B9860036E83F30B8810469A
:103E600081F30988002163B681F31188BFF36F8F56
:103E70000022002306F0C5FD4044012001B5EFF308
:103E80000580A0F110004FEAC0000449014409C9AF
:103E90009847BDE80140024908470000C4E9000016
:103EA000A53E0000044B99685869884203D0034935
:103EB0004FF080520A6070474044012004ED00E05A
:103EC000154B9A6A12F0007F9A6A14BF1E201D20BB
:103ED00012F0807F9A6A18BF1F2012F4801F9A6A1E
:103EE00018BF022012F4002F9A6A18BF212012F482
:103EF000802F9A6A18BF222012F4003F9A6A18BFD6
:103F0000232012F4803F9A6A18BF24206FEA0242ED
:103F10006FEA12429A62704700ED00E010B5184B4C
:103F20000246986A9C6A10F4805F14BF172016201E
:103F300014F4006F9C6A18BF1820A40508D5986A6D
:103F4000000404D51AB19A6A22F400429A62192038
:103F50000B4B9A6A12F4806F9A6A18BF1A20D20526
:103F60000CD49B6A13F4005F18BF1C20044A936AA8
:103F700043F47F43936200230B7010BD1B20F5E7D1
:103F800000ED00E010B51C4B0246986A9C6A10F0E8
:103F9000100F14BF1120102014F0080F9C6A18BFD6
:103FA0001220A40709D5586B986A000604D51AB1E7
:103FB0009A6A22F080029A6213200F4B9A6A12F0DA
:103FC000010F9A6A18BF142012F0200F9A6A18BFC6
:103FD0001520D40658BF9B6A074B9A6A920642BFC7
:103FE0005A6A22F400525A629A6A42F0FF029A62B6
:103FF00000230B7010BD00BF00ED00E070B5444B16
:1040000006465B6800258AB0C3F3080385F3118870
:10401000BFF36F8F02F07F40B0F17F4F11D102F0FC
:104020000C0008280DD010074CBF0E4601250022B9
:10403000033B8DF80720032B05D8DFE803F01E5C57
:1040400060592E46F3E700249DF807309BB92022E3
:10405000314602A807F0FEFB099B002D53D0C3F3A5
:10406000080222B96FEA53236FEA432309932046DB
:1040700002A907F086FB0AB070BD254BDA6A9107EA
:10408000E1D4DA6A002ADEDBDA6A5200DBD55A694B
:10409000B16942F480725A61BFF34F8FBFF36F8FE3
:1040A0005A6931F8021C22F480725A61BFF34F8FB3
:1040B000BFF36F8F4DF60272914209D09A6AD2B265
:1040C00042B101200DF10701FFF75CFF0446BBE799
:1040D0003468B9E79A6A12F47F4F05D001200DF1D8
:1040E0000701FFF71BFFF1E79B6AB3F5803FAAD3F7
:1040F000FFF7E6FEEAE700200DF10701E4E7002004
:104100000DF10701EDE723F4FF7323F00103ADE7A1
:1041100000ED00E0044B5A6942F010025A615A69FE
:1041200042F480625A61704700ED00E0EFF30880CE
:10413000EFF3098101B57246FFF760FF01BD00BFD3
:10414000002320210348C2180133452B82F80013B5
:10415000F9D1704700E100E0002080F31488BFF33C
:104160006F8F002080F30A8880F30B88FDF78AFDAB
:1041700000200E490860BFF34F8F0D4880F3088878
:1041800000F03EF8202080F311880A484FF40061C7
:10419000401880F30988EFF314800221084380F36C
:1041A0001488BFF36F8FFFF7C7FD000094ED00E0A8
:1041B000E8A10520A8700520BFF34F8F0549064BE5
:1041C000CA6802F4E0621343CB60BFF34F8F00BFB5
:1041D000FDE700BF00ED00E00400FA0500231846EB
:1041E0000649D1F89020C2F30722934200DB7047C2
:1041F000C1F89830C1F8A0000133F6E700ED00E007
:1042000010B572B6002484F31388FFF7E7FF234646
:104210004FF0FF300C4A03F120010133102B42F81C
:104220002100F8D100234FF0FF30074A03F160016D
:104230000133102B42F82100F8D162B6BFF34F8F43
:10424000BFF36F8F10BD00BF00E100E0084B9B681B
:1042500083420BD1EFF3058343B1064B5A6842F01A
:1042600080525A605A6A22F400425A6205F08CBDAC
:104270004044012000ED00E01FB5094C094A2346E7
:104280000121094800F0EAF800230393074B0121BC
:10429000E41A01A80193029400F0EAF804B010BDFA
:1042A000000007200020002034EE000090240020B1
:1042B00010B50C7A0B6804F01F0223F01F031A4399
:1042C000CB68640923F01F03054943EA440343F024
:1042D0000103C1F89800C1F89C20C1F8A03010BDBE
:1042E00000ED00E02DE9F04F0F46144606464FF072
:1042F00000084E4D85B0B84580F29480D6F8049001
:10430000B9F1000F36D0B9F11F0F40F2898019F0D2
:104310001F0F40F08580D6F800A01AF01F0F7FD144
:10432000504607F043FA834609EB0A00013807F0CC
:104330003DFA834574D11BF1160F71D05C456FDDDA
:10434000C5F898B0D5F89C10C5F898B0D5F8A0304D
:1043500021F01F0143F01F0AD6E900321A449942A6
:1043600002F1FF391ED1CA4508D131465FFA8BF000
:1043700007F025FA08F101080C36BCE73146C5F80C
:1043800098B0D5F89C3022F01F0203F01F031343AE
:10439000C5F89C30E0B207F012FA10F1160F3FD0CA
:1043A000441CE7E7C5F898B0D5F8A020013B23F0FE
:1043B0001F0302F01F021343CA453146E0B2C5F89D
:1043C000A030E8D007F0FBF910F1160F28D0C5F89F
:1043D00098B0D5F89C209DF808300AF1FF3A62F3B6
:1043E00004038DF80830D5F8A0309DF808205B084C
:1043F00063F347128DF80820D6E900321344009386
:1044000023F01F03411C5344A3EB0903C8B223F05C
:104410001F030728039303D86946FFF749FFBFE747
:104420006FF01504204605B0BDE8F08F00ED00E008
:104430000522044BC3F89420BFF34F8FBFF36F8F57
:10444000704700BF00ED00E0BFF35F8F0022024B1A
:10445000C3F89420704700BF00ED00E010B5034C96
:104460002278FFF73FFF207010BD00BF9D6801203C
:104470002DE9F74F294D8A4606464FF00008AB4616
:10448000274FD0451BDAD6F80490B9F1000F3FD082
:1044900031680846019107F089F90199044609EB52
:1044A0000100013807F082F984424FF014021D4BDD
:1044B00008D002FB08F36FF015024BF8032003B09D
:1044C000BDE8F08F14F1160F2C60F8D01978A142D6
:1044D000F5DD02FB08B0C7F89840C7F89840D7F858
:1044E0009C4000F10801007B64F304000871D7F8D8
:1044F000A0000C79400860F347140C71D7F89C10A9
:1045000021F01F016960D7F8A01021F01F01296177
:1045100008F1010814350C36B3E700BFD837012085
:1045200000ED00E09D68012038B50E4D2C68082C88
:1045300015D80020FFF788FF0B4B0C4AC3F8C020AA
:10454000844205D10A4B00201C70FFF771FF38BD73
:10455000696801EB0011FFF7ABFE0130F0E74FF0A7
:10456000FF30F4E740EE000000ED00E0AAFF440059
:104570009D6801200CB410B586B009B90DF10B008F
:104580000024CDE9040109AB089A009404A9054868
:104590000393FDF7D9F8049B1C7006B0BDE81040EA
:1045A00002B070477DB800000146014809F0D4BE52
:1045B000782300200149024809F033BF1438012054
:1045C00028250020020600F07F0312D5082B05D114
:1045D000010700F00F0306D50E48704710F0780F62
:1045E00012D100F00F034C2000EB43100A4B18448B
:1045F0007047082B05D1020700F00F0306D50748C6
:10460000704710F0780FF6D000207047044800EB98
:104610004310704738390120EC370120583A012007
:104620005839012000220023014804F0B3BF00BF25
:104630007823002010B5054CFFF7F4FF20B1011DD1
:10464000204609F0CCFDF7E710BD00BFF82200209E
:1046500007B5002300220E4801A904F0FFFD90B128
:10466000FFF7E8FF00220023094801A904F0F6FD46
:1046700038B90423019840600374FFF795FFFFF7F2
:1046800099FF002001E00198406003B05DF804FB51
:10469000F822002010B50446FFF7DAFF60B10022CF
:1046A00004720274FFF780FF044B93F824301BB1AF
:1046B000BDE81040FFF77EBF10BD00BFEC37012002
:1046C000F8B5877806463846FFF77CFF3B06044678
:1046D000F57812D5002D43D1FFF7BAFF0346002825
:1046E0003ED00122A5770274032202739C60FFF77B
:1046F0005BFFBDE8F840FFF75DBF4DB1012D2FD145
:10470000FFF7A6FF034658B3657705740573EDE719
:10471000FFF79EFF20B3B278124B12F0800F02F029
:10472000080111D041B1D3F8A836E3600123037426
:10473000022384600373DAE7142102F00F0201FB05
:104740000233D3F80836F0E711B1D3F8A837ECE715
:10475000142102F00F0201FB0233D3F80837E4E71B
:10476000F8BD00BF00600350012807B50FD0022834
:104770000ED048B9002200230848CDE9002345F6B1
:104780009A12002305F03CFD03B05DF804FB002005
:1047900003B05DF804EBFFF77DBF00BF8822002067
:1047A00013B5002201213720FFF7ACFA3720FFF7BD
:1047B00079FA124803F024FF114B98421AD10024D1
:1047C000104803F05BF9104804F0B6FB4FF0FF33DC
:1047D0004FF480620D490E48009405F047F80D49EA
:1047E0000B4809F02BFD0C480C4909F0FDFD204653
:1047F00002B010BD6FF00400FAE700BF5948000096
:104800000000AD0BA7F5000068EE0000A86C0520C5
:10481000282500209CF5000014380120DD49000007
:10482000002310B50B49D1E8EF2F012A03D1C1E8CD
:10483000E03F0028F7D10CD151F8044C1439204640
:1048400006F08AFC783004D12046BDE8104006F01E
:104850005EBC10BD0C380120F0B5064689B01422AC
:10486000002103A807F001F83378013B052B21D87C
:10487000DFE803F07A0314146A16032300248DF88A
:104880001430FFF7E5FE0346A0B100F108020474FE
:10489000DDE9050182E8030018461DE00423EDE789
:1048A000B7783846FFF78EFE837A044623B1013B82
:1048B000022B43D909B0F0BD3B06F57813D5002D86
:1048C000F8D1FFF7C5FE03460028F3D00122A577F3
:1048D0000274032202739C60FFF766FE09B0BDE814
:1048E000F040FFF767BE55B1012DE3D1FFF7B0FEF1
:1048F00003460028DED0657705740573EBE7FFF704
:10490000A7FE07460028D5D0012303740223846044
:10491000037304F10C01B07809F01EF9134AE16841
:10492000B2F88C328B4206D95B1AA2F88C3204F0B2
:104930009DF83846D0E7A2F88C52FAE7304609B025
:10494000BDE8F040FFF7BCBE01A804F069F89DF88F
:104950000530052B04D19DF8043013F0600FA9D069
:10496000034B012405938CE702248AE7EC370120EE
:104970005839012038B5002464F07F00C0B2FFF739
:1049800021FE013406F089FF082CF5D100240E4DDC
:10499000E0B2FFF717FE036903B90561013406F0C1
:1049A0007CFF082C05F14005F2D1084806F075FFA0
:1049B000074BD3F87C2212B9064AC3F87C2206487A
:1049C00006F06BFF002038BD7C3E01203839012005
:1049D000EC3701207C3A0120583A01202DE9F043C0
:1049E0000746AD4CDFF8B48285B0FFF71BFE10B967
:1049F00005B0BDE8F08394F82530027C00F104098D
:104A00003BB9002A00F088804946A44809F0E7FB3A
:104A1000EBE7042A44D8DFE812F07F000500FE002F
:104A200014012F01037B8568032B39D8DFE803F0DD
:104A3000023F5C616E6908220021304606F015FFD6
:104A4000974B9848D3F880243270D3F8842472703E
:104A5000D3F88824D3F88C1442EA01227280D3F868
:104A60009024D3F8941442EA0122B280D3F8982417
:104A7000D3F89C34314642EA03230822F380EA60EB
:104A800006F0E8FE2B680021687A984796F9003016
:104A9000002B08DBF38833B1A4F88C3203F0E6FF77
:104AA00049464046B2E70023A4F88C32F8E76B7F12
:104AB000002BF5D02B7F002BF2D000264FF0FF32D9
:104AC0006E774FF0FF3378482E7706F0FCFE6B6967
:104AD00001A901936B68CDE90236687A03F0D2FD33
:104AE000714806F0F2FEDBE701212B68687A9847EF
:104AF000D6E7AB7A6BB9EB7F5BB96B484FF0FF320F
:104B00004FF0FF3306F0DFFE03F0E4FF664806F0E7
:104B1000DCFE02212B68E9E7027A042AC0D8DFE82C
:104B200002F055031F636F0003F034FD05460028B3
:104B3000B6D103F0DBFC01235C49D1E8EF2F002A5A
:104B400003D1C1E8E03F0028F7D1A9D141F8085CC2
:104B500041F8105CE0691439636106F080FA9FE760
:104B6000002565F07F00C0B2FFF72CFD037A13B17A
:104B7000407A04F05DF90135082DF2D194F85431F2
:104B80001BB194F8550104F053F90025E8B2FFF782
:104B900019FD037A13B1407A04F04AF90135082D62
:104BA000F4D194F874321BB194F8750204F040F912
:104BB000012003F0D1FC012384F825302368002B69
:104BC0003FF46EAF00210220984769E7002584F882
:104BD000255004F0EBF8FFF723FE2368002B3FF489
:104BE0005FAF29460420EFE7002B3FF459AF03F0F5
:104BF000DBFC2368002B3FF453AF00210520E3E7E3
:104C00002268002A3FF44CAF002B3FF449AF00214B
:104C10000620904744E707F110054FF0FF334FF0AF
:104C2000FF32284606F04FFEFFF7A4FE284606F0A6
:104C30004CFE57F8283C002B3FF432AF00210120F6
:104C4000C2E794F874327BB1012584F8895284F864
:104C50008852FFF7FDFC38B1154A05740573826070
:104C6000FFF7A2FCFFF7A6FC57F8283C002B3FF407
:104C700017AF00210A20A7E704F046F904F096F8E0
:104C800003F02AFCFFF7D6FCFFF774FE04F034F9BA
:104C9000084803F0B5FC03E7EC370120F8220020B8
:104CA00000600350F0370120243801200C38012027
:104CB000583A01205948000038B5154D95F8244060
:104CC00024BB05F1380009F0D2FA022000F040FBC5
:104CD00022460121E8613620FFF714F804F00CF9B0
:104CE000FFF748FE044610B9012385F82430094B2C
:104CF0001B680BB1FFF75EFC074BD3F80034DB07F2
:104D000002D50020FFF730FD204638BD0024FBE728
:104D1000EC370120782300200070035010B54FF0CD
:104D2000FF324FF0FF330B4806F0CDFDFFF782FC5A
:104D300003F030FC08B104F039F80024FFF770FDEF
:104D400004F0E2F8044880F82440383006F0BDFD55
:104D5000204610BD24380120EC370120074B93F882
:104D600024203AB193F82530002B14BF00206FF0B7
:104D7000120070476FF01200704700BFEC3701203F
:104D800038B5104B044693F82430C3B10578284653
:104D9000FFF718FC10B96FF0150038BD4572237984
:104DA0008372638843602078618810F0080F02D115
:104DB0004B1E0B42EFD108F0CAFE0020EDE76FF06A
:104DC0001200EAE7EC37012038B5124B054693F89C
:104DD0002420CAB193F82530B3B1FFF7F3FB0446A2
:104DE000A8B1837A012B12D007D9023B012B07D936
:104DF00000206369E060A36138BD03F073FEF7E74C
:104E0000284603F0DFFDF3E76FF01200F4E76FF0E0
:104E10001500F1E7EC37012038B50E4B054693F845
:104E2000242082B193F825306BB1FFF7CBFB68B13A
:104E300015F008040AD1284603F0E6FD284604F0E0
:104E40004BF8204638BD6FF01200FBE76FF01500FD
:104E5000F8E700BFEC37012038B50C4B054693F856
:104E600024200C4662B193F825304BB1FFF7AAFB22
:104E700048B144B1284603F0ADFD2070002038BD94
:104E80006FF01200FBE76FF01500F8E7EC37012038
:104E900070B5134E044696F82430C3B1FFF792FB69
:104EA0000546B8B1230705D4204603F0ADFD2046E2
:104EB00004F012F82B7A83B901232B7296F825306F
:104EC0000BB9002070BD204603F0B2FFF9E76FF088
:104ED0001200F7E76FF01500F4E76FF07700F1E7E5
:104EE000EC3701202DE9F043DFF8E4801E4698F806
:104EF000243007468946154685B0002B61D098F8C6
:104F00002530002B5DD003065ED5FFF75BFB044622
:104F1000002859D0037A002B56D04FF0FF334FF0C2
:104F2000FF3208F1380006F0CEFCA37F4BB108F148
:104F3000380006F0CAFC6FF00A04204605B0BDE850
:104F4000F083A37AC5B13BB301234FF00008A377E8
:104F5000384601A9CDE90195CDF80C8003F092FB0C
:104F60001C4B984229D084F81E801EBB6FF00404AD
:104F7000194806F0AAFCE0E7E27F02B1E577002BD2
:104F8000E2D103F0B7FDB842DED003F0A3FD124832
:104F900006F09BFC0024D0E7B8F80A30AB42F0D909
:104FA0006268B5FBF2F302FB1353002BE9D1012336
:104FB000E377E6E7C6F80080D8E706B1356000245D
:104FC000D6E76FF01204B8E76FF01504B5E700BF3D
:104FD000EC3701200000AD0B243801202DE9F04111
:104FE0001D46204B174693F824200E46002A33D046
:104FF00093F8253083B3030631D401B97FBBFFF7A3
:10500000E1FA044658B3037A4BB34FF0FF334FF045
:10501000FF32154806F057FCE368B8469F4228BFA8
:10502000984646B93FB905B12B600F4806F04DFCD4
:105030000020BDE8F08142463046A16906F00AFC36
:10504000A3694344A361E368A3EB0803E360002D75
:10505000EBD0C5F80080E8E76FF01200E9E76FF0E9
:105060001500E6E7EC3701202438012070B51E4D0D
:10507000034695F8242082B395F825206AB31B06D1
:105080002ED4FFF79FFA044650B3037A43B34FF090
:10509000FF334FF0FF3205F1380006F014FCE368EF
:1050A000B3B9012663692677A361637F83B1FFF7F4
:1050B000CFFA30B905F1380006F007FC6FF00B00AD
:1050C00070BD067484600673FFF76EFAFFF772FA1C
:1050D000064806F0FAFB0020F2E76FF01200EFE757
:1050E0006FF01500ECE700BFEC37012024380120F9
:1050F00010B5084B0C4693F824302BB1FFF762FA39
:1051000028B10460002010BD6FF01200FBE76FF0C3
:105110001500F8E7EC370120014B1860704700BF1D
:10512000EC37012008B5074B93F8243023B1FFF783
:1051300049FA20B1406808BD6FF01200FBE76FF03C
:105140001500F8E7EC370120084B70B5C31A0D467F
:1051500007499B10044659434022064806F013FCB9
:105160002B4601462046BDE870401847904001207C
:10517000B76DDBB6ECE80000402373B50B4C009331
:10518000041B0B460D460A49A41061430646094A12
:10519000094806F025FC011E05DA30462B4602B010
:1051A000BDE87040184702B070BD00BF90400120BC
:1051B000B76DDBB64DBA0000ECE800002DE9F8430E
:1051C0000022012106460520FEF79CFD114801F052
:1051D000E7FF114B984219D101F0F2FF00244FF084
:1051E0001C090C27DFF834803569414609FB04505F
:1051F00005F022FF002807DB012307FB04551C44B0
:10520000042CAB67F0D10020BDE8F8836FF00400F8
:10521000FAE700BF555200000000AD0B70EE000031
:1052200001460C2300224B4370B50848C41878335C
:105230001844D4E91C56226706F092FB2DB1324681
:105240002B46BDE870400248184770BD90400120D1
:10525000ECE80000052811D8DFE800F0030E10107C
:105260000C0A074B986F10F0070007D1FFF7D8BF63
:105270000220FBE70320F9E70120F7E7704700BFB2
:105280009040012008B54FF02003EFF3118183F324
:105290001288BFF36F8F124A136843F00200106048
:1052A000DA0708D481F31188BFF36F8FBDE8084097
:1052B000012008F004BB4FF05023D3F80C24D3F89E
:1052C0000C34D307EED5074806F04AFB81F311886A
:1052D000BFF36F8FBDE808400020FFF7A1BF00BFFC
:1052E00030410120084101201FB500220123CDE9F2
:1052F00002236B46084ACDF800D0CDF804D006F062
:105300009EFB002805DB4FF480420023684604F032
:1053100095F905B05DF804FB83BA000010B54FF0B5
:105320002003EFF3118483F31288BFF36F8F074AD2
:10533000136823F00201DB07116002D4012008F09A
:105340001DFB84F31188BFF36F8F10BD3041012026
:10535000C3B21C20014A03FB00207047904001208B
:105360002DE9F041012207463749D1E8EF3FC1E876
:10537000E02F0028F9D133B9344935484B60CB6070
:105380008A6005F06CFE7B1E012B2BD8012F07D104
:105390004FF05023D3F81C3403F00303022B21D029
:1053A00008F046FF0546F8B92A4B1B78E3B14FF0E9
:1053B000502302220646C3F808234FF05024DFF89A
:1053C0009880D4F81834D4F81824D20316D503F0F2
:1053D0000303022B01D0012F10D175B386F311887E
:1053E000BFF36F8FBDE8F0814FF02003EFF311861C
:1053F00083F31288BFF36F8F0125DEE7C5B1304616
:10540000FEF73EFCD4F81835DBB2012BD9D1D4F825
:105410000421002AD5D00022C4F80421D4F80421A4
:105420000222C4F818252022C8F88021A360C8E70A
:105430000021212004F06EFCE4E74FF0502302220B
:10544000C3F80423CEE700BF8C4001207C4001203C
:10545000AC400120A568052000E100E000F17440A7
:1054600000F5A6000A289ABF024B33F910006FF02E
:105470000F00704738F20000024B0B6001231360ED
:10548000704700BF1CEF000000487047B8EE0000F6
:10549000054B994206D14FF0FF324FF0FF332030D9
:1054A00004F0CCB8704700BF0000AD0B38B50569FB
:1054B000044695F84030FBB9284606F0EBFA002286
:1054C000002305F1300004F0B9F8AB6B4BB90B4D7C
:1054D00002F090FDA84209D102F0AEFD0022084B77
:1054E0001A702069BDE8384006F0ECBA002140F29D
:1054F000676004F00FFCEBE738BD00BF0000AD0BA8
:105500009E680120F8B50669054696F84040D4B972
:10551000304606F0BFFA0D4F06F1300004F06EF889
:105520003B785BB932460A49686802F02DFCFFF708
:1055300095FFB0FA80F304465B093B70286906F0DA
:10554000C1FA2046F8BD0024FBE700BF9E68012099
:1055500089BA00002DE9F84F0D1E06469046D0F896
:10556000049069DBD9F81830AA189A4264D8C5F3B8
:105570000B02B8F1000F5FD0C8F30B0313435BD1EC
:10558000FFF7C0FF044660BB306906F095FA21467C
:10559000304606F0DDFA044600BB306906F07AFAC0
:1055A000DFF89CA0D9F81830434520D108F06CFAF8
:1055B000C346074639463069FFF76AFF57452BD186
:1055C000B8EB0B085D44EDD1306906F07BFA0121A0
:1055D000304606F0BDFA002C08BF0446306904F0DE
:1055E0000DF83046FFF762FF2046BDE8F88FB8F5AA
:1055F000803F09D3ABB2A3B92946012002F06AFD6E
:105600004FF4803B0746D5E7B8F5805F09D20D49D6
:105610003069FFF73DFF0B4F3846FFF71FFF044689
:10562000D2E7C5F30B000028F1D1294602F052FD64
:105630004FF4805B0746BDE76FF01504D4E700BF69
:105640000000AD0B0400AD0BF0B5436887B01D6AD8
:1056500004460021284603AA06F093FB002866DBD7
:10566000039B2A681979186800F034FC00285EDB77
:105670004FF050270125002201212B20FEF742FB8D
:105680006668226930463D49C7F8B85502F07CFB90
:105690000223C7F8B835FFF7E1FE002847DB0022F8
:1056A000AB23204603A9CDE9032205928DF80C30E7
:1056B00006F013FA00283ADB232009F001F8F37A08
:1056C000023BAB4205D9B57A033D012D8CBF0025C5
:1056D0000125204606F051FA002828DBC2B2C0F3AB
:1056E0008010854201AD24D12046FFF7DFFE03265E
:1056F0000023CDE9026304939F232046CDF804D014
:105700008DF80C300595FFF7FDFE024678BB20466C
:1057100003A906F0E2F905462046FFF7C7FE4DBB98
:105720006068324669461C3006F06DF810BB07B061
:10573000F0BD002382F04002ADF800308DF800206B
:105740000122204603A9CDE90223CDF804D0059318
:105750008DF80C20049506F0C0F90028E7D120460A
:1057600006F00BFA0028E2DBC307F8D4BCE72046BA
:10577000FFF79CFE6FF01200D9E700BF89BA000066
:105780002DE9FF4705460F461E469046002A7FD06A
:10579000002B7DD0042B01D99A0779D1BB0777D193
:1057A000002F6A6874DB9269BB19934270D828464F
:1057B000FFF7A8FE044600285FD1286906F07CF9AF
:1057C0002146284606F0C4F90446286906F062F925
:1057D000002C40D1032E1CD83A460421684608F01C
:1057E00050F9044601462869FFF752FE2A4B9C42B5
:1057F00031D132464146684606F02CF83A4604213B
:10580000684608F03BF9044601462869FFF740FE68
:1058100021E008F06043B3F1005F35D0DFF878A0F5
:10582000102EB14628BF4FF0100941464A4668463F
:1058300006F010F83A461021684608F01FF90446B1
:1058400001462869FFF724FE544504D1B6EB09064A
:10585000C8444F44E4D1286906F034F901212846B0
:1058600006F076F90646286903F0C8FE002C14BF3E
:1058700020463046FFF7F2FD04462846FFF716FEA5
:10588000204604B0BDE8F0873A4631464046B8E7C6
:105890006FF01504F4E700BF0000AD0B2DE9F04FE9
:1058A000074688461C46164685B0002A00F09980B7
:1058B000002B00F0948000294268C0F29280926927
:1058C000CB18934200F28D80FFF71CFE054600289E
:1058D0007ED1C8F1000505F00305386906F0DAF855
:1058E000A54228BF2546734203F0030306F00309CF
:1058F00058BFC3F10009C9F1000909F00309A14526
:1059000028BFA146631BA4EB090424F0030423F081
:10591000030AA245C8BFA24603F0030BC8BFA3EB0E
:10592000040BBAF1000F18D006EB090308EB0502CF
:1059300051461846019308F0A4F804460146386918
:10594000FFF7A6FD284A94423BD14D4505D0019B67
:1059500052461946701905F066FFBDB1C5F104093C
:105960000421A8EB090202A808F08BF804460146BE
:105970003869FFF78DFD1C4B9C4222D109F10803C9
:105980002A4630460DEB030105F064FFBBF1000F22
:1059900016D0082108EB050252440DEB010008F077
:1059A00070F8044601463869FFF772FD0E4B9C42C1
:1059B00007D10AEB05005A4602A9304405F04AFF18
:1059C000094C386906F07EF82046FFF747FD05468A
:1059D0003846FFF76BFD284605B0BDE8F08F1D4641
:1059E000F9E76FF01505F6E70000AD0B024B0B6011
:1059F00001231360704700BF24EF00000048704788
:105A00002CEF00002DE9F7431C460B44B3F5802F23
:105A10000D4617462CD800292ADB41EA040616F069
:105A2000030625D10422FF210DEB020005F01DFF26
:105A3000DFF8448008EB0509A64209D33A4608EB93
:105A400005033C44A2420CD1002003B0BDE8F08322
:105A5000042209EB06010DEB020005F0D4FE04362A
:105A6000EAE7197812F8010B014003F8011BE9E796
:105A70006FF01500E9E700BF9F680120104608B5E8
:105A80001A460B44B3F5802F07D8002905DB044BD9
:105A9000194405F0DFFE002008BD6FF01500FBE79C
:105AA0009F6801208B18B3F5802F70B51BD8002993
:105AB00019DB42EA0106C6F30B06A6B90B4C21F42A
:105AC0007F6121F00F01150B0C44AE4201D1002083
:105AD00070BD20464FF48052FF2105F0C6FE01360E
